{
  "_format": "hh-sol-artifact-1",
  "contractName": "Hello",
  "sourceName": "contracts/Hello.sol",
  "abi": [
    {
      "anonymous": false,
      "inputs": [
        {
          "indexed": false,
          "internalType": "string",
          "name": "eventOutput",
          "type": "string"
        },
        {
          "indexed": false,
          "internalType": "address",
          "name": "sender",
          "type": "address"
        }
      ],
      "name": "myEventTest",
      "type": "event"
    },
    {
      "inputs": [],
      "name": "get",
      "outputs": [
        {
          "internalType": "string",
          "name": "",
          "type": "string"
        }
      ],
      "stateMutability": "view",
      "type": "function"
    },
    {
      "inputs": [],
      "name": "lastUpdater",
      "outputs": [
        {
          "internalType": "address",
          "name": "",
          "type": "address"
        }
      ],
      "stateMutability": "view",
      "type": "function"
    },
    {
      "inputs": [
        {
          "internalType": "string",
          "name": "myText",
          "type": "string"
        }
      ],
      "name": "set",
      "outputs": [],
      "stateMutability": "nonpayable",
      "type": "function"
    },
    {
      "inputs": [],
      "name": "storedData",
      "outputs": [
        {
          "internalType": "string",
          "name": "",
          "type": "string"
        }
      ],
      "stateMutability": "view",
      "type": "function"
    }
  ],
  "bytecode": "0x608060405234801561001057600080fd5b50610888806100206000396000f3fe608060405234801561001057600080fd5b506004361061004c5760003560e01c80632a1afcd9146100515780634ed3885e1461006f5780635b8983531461008b5780636d4ce63c146100a9575b600080fd5b6100596100c7565b604051610066919061032a565b60405180910390f35b61008960048036038101906100849190610495565b610155565b005b6100936101e2565b6040516100a0919061051f565b60405180910390f35b6100b1610208565b6040516100be919061032a565b60405180910390f35b600080546100d490610569565b80601f016020809104026020016040519081016040528092919081815260200182805461010090610569565b801561014d5780601f106101225761010080835404028352916020019161014d565b820191906000526020600020905b81548152906001019060200180831161013057829003601f168201915b505050505081565b80600090816101649190610750565b5033600160006101000a81548173ffffffffffffffffffffffffffffffffffffffff021916908373ffffffffffffffffffffffffffffffffffffffff1602179055507f17e3463fb35e208da17fe939aa08ea9836e2644f4034725850cb69188e85959181336040516101d7929190610822565b60405180910390a150565b600160009054906101000a900473ffffffffffffffffffffffffffffffffffffffff1681565b60606000805461021790610569565b80601f016020809104026020016040519081016040528092919081815260200182805461024390610569565b80156102905780601f1061026557610100808354040283529160200191610290565b820191906000526020600020905b81548152906001019060200180831161027357829003601f168201915b5050505050905090565b600081519050919050565b600082825260208201905092915050565b60005b838110156102d45780820151818401526020810190506102b9565b60008484015250505050565b6000601f19601f8301169050919050565b60006102fc8261029a565b61030681856102a5565b93506103168185602086016102b6565b61031f816102e0565b840191505092915050565b6000602082019050818103600083015261034481846102f1565b905092915050565b6000604051905090565b600080fd5b600080fd5b600080fd5b600080fd5b7f4e487b7100000000000000000000000000000000000000000000000000000000600052604160045260246000fd5b6103a2826102e0565b810181811067ffffffffffffffff821117156103c1576103c061036a565b5b80604052505050565b60006103d461034c565b90506103e08282610399565b919050565b600067ffffffffffffffff821115610400576103ff61036a565b5b610409826102e0565b9050602081019050919050565b82818337600083830152505050565b6000610438610433846103e5565b6103ca565b90508281526020810184848401111561045457610453610365565b5b61045f848285610416565b509392505050565b600082601f83011261047c5761047b610360565b5b813561048c848260208601610425565b91505092915050565b6000602082840312156104ab576104aa610356565b5b600082013567ffffffffffffffff8111156104c9576104c861035b565b5b6104d584828501610467565b91505092915050565b600073ffffffffffffffffffffffffffffffffffffffff82169050919050565b6000610509826104de565b9050919050565b610519816104fe565b82525050565b60006020820190506105346000830184610510565b92915050565b7f4e487b7100000000000000000000000000000000000000000000000000000000600052602260045260246000fd5b6000600282049050600182168061058157607f821691505b6020821081036105945761059361053a565b5b50919050565b60008190508160005260206000209050919050565b60006020601f8301049050919050565b600082821b905092915050565b6000600883026105fc7fffffffffffffffffffffffffffffffffffffffffffffffffffffffffffffffff826105bf565b61060686836105bf565b95508019841693508086168417925050509392505050565b6000819050919050565b6000819050919050565b600061064d6106486106438461061e565b610628565b61061e565b9050919050565b6000819050919050565b61066783610632565b61067b61067382610654565b8484546105cc565b825550505050565b600090565b610690610683565b61069b81848461065e565b505050565b5b818110156106bf576106b4600082610688565b6001810190506106a1565b5050565b601f821115610704576106d58161059a565b6106de846105af565b810160208510156106ed578190505b6107016106f9856105af565b8301826106a0565b50505b505050565b600082821c905092915050565b600061072760001984600802610709565b1980831691505092915050565b60006107408383610716565b9150826002028217905092915050565b6107598261029a565b67ffffffffffffffff8111156107725761077161036a565b5b61077c8254610569565b6107878282856106c3565b600060209050601f8311600181146107ba57600084156107a8578287015190505b6107b28582610734565b86555061081a565b601f1984166107c88661059a565b60005b828110156107f0578489015182556001820191506020850194506020810190506107cb565b8683101561080d5784890151610809601f891682610716565b8355505b6001600288020188555050505b505050505050565b6000604082019050818103600083015261083c81856102f1565b905061084b6020830184610510565b939250505056fea2646970667358221220a4513744e2c08c0df8c2e58544c686f0e3e18c6378b09d0d5d58efa8163805f964736f6c63430008120033",
  "linkReferences": {},
  "deployedLinkReferences": {}
}