{
  "_format": "hh-sol-artifact-1",
  "contractName": "TruthLedger",
  "sourceName": "contracts/TruthLedger.sol",
  "abi": [
    {
      "inputs": [],
      "stateMutability": "nonpayable",
      "type": "constructor"
    },
    {
      "anonymous": false,
      "inputs": [
        {
          "indexed": true,
          "internalType": "uint256",
          "name": "id",
          "type": "uint256"
        },
        {
          "indexed": true,
          "internalType": "address",
          "name": "editor",
          "type": "address"
        },
        {
          "indexed": false,
          "internalType": "string",
          "name": "newIpfsHash",
          "type": "string"
        },
        {
          "indexed": false,
          "internalType": "uint256",
          "name": "cost",
          "type": "uint256"
        },
        {
          "indexed": false,
          "internalType": "uint256",
          "name": "timestamp",
          "type": "uint256"
        }
      ],
      "name": "ArticleEdited",
      "type": "event"
    },
    {
      "anonymous": false,
      "inputs": [
        {
          "indexed": true,
          "internalType": "uint256",
          "name": "id",
          "type": "uint256"
        },
        {
          "indexed": true,
          "internalType": "address",
          "name": "by",
          "type": "address"
        }
      ],
      "name": "ArticleRetracted",
      "type": "event"
    },
    {
      "anonymous": false,
      "inputs": [
        {
          "indexed": true,
          "internalType": "uint256",
          "name": "id",
          "type": "uint256"
        },
        {
          "indexed": true,
          "internalType": "address",
          "name": "author",
          "type": "address"
        },
        {
          "indexed": false,
          "internalType": "string",
          "name": "title",
          "type": "string"
        },
        {
          "indexed": false,
          "internalType": "string",
          "name": "category",
          "type": "string"
        },
        {
          "indexed": false,
          "internalType": "string",
          "name": "ipfsHash",
          "type": "string"
        },
        {
          "indexed": false,
          "internalType": "uint256",
          "name": "timestamp",
          "type": "uint256"
        }
      ],
      "name": "ArticleSubmitted",
      "type": "event"
    },
    {
      "anonymous": false,
      "inputs": [
        {
          "indexed": true,
          "internalType": "address",
          "name": "to",
          "type": "address"
        },
        {
          "indexed": false,
          "internalType": "uint256",
          "name": "amount",
          "type": "uint256"
        }
      ],
      "name": "HashAirdropped",
      "type": "event"
    },
    {
      "anonymous": false,
      "inputs": [
        {
          "indexed": true,
          "internalType": "address",
          "name": "user",
          "type": "address"
        },
        {
          "indexed": false,
          "internalType": "uint256",
          "name": "age",
          "type": "uint256"
        },
        {
          "indexed": false,
          "internalType": "string",
          "name": "location",
          "type": "string"
        },
        {
          "indexed": false,
          "internalType": "string",
          "name": "nationality",
          "type": "string"
        }
      ],
      "name": "UserUpdated",
      "type": "event"
    },
    {
      "anonymous": false,
      "inputs": [
        {
          "indexed": true,
          "internalType": "uint256",
          "name": "articleId",
          "type": "uint256"
        },
        {
          "indexed": true,
          "internalType": "address",
          "name": "voter",
          "type": "address"
        },
        {
          "indexed": false,
          "internalType": "bool",
          "name": "isCredible",
          "type": "bool"
        },
        {
          "indexed": false,
          "internalType": "string",
          "name": "comment",
          "type": "string"
        },
        {
          "indexed": false,
          "internalType": "int256",
          "name": "newScore",
          "type": "int256"
        }
      ],
      "name": "Voted",
      "type": "event"
    },
    {
      "inputs": [],
      "name": "EDIT_COST",
      "outputs": [
        {
          "internalType": "uint256",
          "name": "",
          "type": "uint256"
        }
      ],
      "stateMutability": "view",
      "type": "function"
    },
    {
      "inputs": [
        {
          "internalType": "address",
          "name": "to",
          "type": "address"
        },
        {
          "internalType": "uint256",
          "name": "amount",
          "type": "uint256"
        }
      ],
      "name": "airdropHash",
      "outputs": [],
      "stateMutability": "nonpayable",
      "type": "function"
    },
    {
      "inputs": [],
      "name": "articleCounter",
      "outputs": [
        {
          "internalType": "uint256",
          "name": "",
          "type": "uint256"
        }
      ],
      "stateMutability": "view",
      "type": "function"
    },
    {
      "inputs": [
        {
          "internalType": "uint256",
          "name": "",
          "type": "uint256"
        }
      ],
      "name": "articleIds",
      "outputs": [
        {
          "internalType": "uint256",
          "name": "",
          "type": "uint256"
        }
      ],
      "stateMutability": "view",
      "type": "function"
    },
    {
      "inputs": [
        {
          "internalType": "uint256",
          "name": "",
          "type": "uint256"
        },
        {
          "internalType": "uint256",
          "name": "",
          "type": "uint256"
        }
      ],
      "name": "articleRevisions",
      "outputs": [
        {
          "internalType": "uint256",
          "name": "timestamp",
          "type": "uint256"
        },
        {
          "internalType": "string",
          "name": "ipfsHash",
          "type": "string"
        },
        {
          "internalType": "address",
          "name": "editor",
          "type": "address"
        },
        {
          "internalType": "uint256",
          "name": "cost",
          "type": "uint256"
        }
      ],
      "stateMutability": "view",
      "type": "function"
    },
    {
      "inputs": [
        {
          "internalType": "uint256",
          "name": "",
          "type": "uint256"
        }
      ],
      "name": "articles",
      "outputs": [
        {
          "internalType": "uint256",
          "name": "id",
          "type": "uint256"
        },
        {
          "internalType": "address",
          "name": "author",
          "type": "address"
        },
        {
          "internalType": "string",
          "name": "title",
          "type": "string"
        },
        {
          "internalType": "string",
          "name": "category",
          "type": "string"
        },
        {
          "internalType": "string",
          "name": "ipfsHash",
          "type": "string"
        },
        {
          "internalType": "uint256",
          "name": "timestamp",
          "type": "uint256"
        },
        {
          "internalType": "bool",
          "name": "retracted",
          "type": "bool"
        },
        {
          "internalType": "int256",
          "name": "score",
          "type": "int256"
        }
      ],
      "stateMutability": "view",
      "type": "function"
    },
    {
      "inputs": [
        {
          "internalType": "uint256",
          "name": "articleId",
          "type": "uint256"
        },
        {
          "internalType": "string",
          "name": "newIpfsHash",
          "type": "string"
        }
      ],
      "name": "editArticle",
      "outputs": [],
      "stateMutability": "nonpayable",
      "type": "function"
    },
    {
      "inputs": [],
      "name": "getArticleIdsLength",
      "outputs": [
        {
          "internalType": "uint256",
          "name": "",
          "type": "uint256"
        }
      ],
      "stateMutability": "view",
      "type": "function"
    },
    {
      "inputs": [
        {
          "internalType": "uint256",
          "name": "articleId",
          "type": "uint256"
        }
      ],
      "name": "getRevisionCount",
      "outputs": [
        {
          "internalType": "uint256",
          "name": "",
          "type": "uint256"
        }
      ],
      "stateMutability": "view",
      "type": "function"
    },
    {
      "inputs": [
        {
          "internalType": "uint256",
          "name": "articleId",
          "type": "uint256"
        }
      ],
      "name": "getVoteCount",
      "outputs": [
        {
          "internalType": "uint256",
          "name": "",
          "type": "uint256"
        }
      ],
      "stateMutability": "view",
      "type": "function"
    },
    {
      "inputs": [
        {
          "internalType": "uint256",
          "name": "",
          "type": "uint256"
        },
        {
          "internalType": "address",
          "name": "",
          "type": "address"
        }
      ],
      "name": "hasVoted",
      "outputs": [
        {
          "internalType": "bool",
          "name": "",
          "type": "bool"
        }
      ],
      "stateMutability": "view",
      "type": "function"
    },
    {
      "inputs": [
        {
          "internalType": "address",
          "name": "",
          "type": "address"
        }
      ],
      "name": "hashBalance",
      "outputs": [
        {
          "internalType": "uint256",
          "name": "",
          "type": "uint256"
        }
      ],
      "stateMutability": "view",
      "type": "function"
    },
    {
      "inputs": [],
      "name": "owner",
      "outputs": [
        {
          "internalType": "address",
          "name": "",
          "type": "address"
        }
      ],
      "stateMutability": "view",
      "type": "function"
    },
    {
      "inputs": [
        {
          "internalType": "uint256",
          "name": "articleId",
          "type": "uint256"
        }
      ],
      "name": "retractArticle",
      "outputs": [],
      "stateMutability": "nonpayable",
      "type": "function"
    },
    {
      "inputs": [
        {
          "internalType": "uint256",
          "name": "age",
          "type": "uint256"
        },
        {
          "internalType": "string",
          "name": "location",
          "type": "string"
        },
        {
          "internalType": "string",
          "name": "nationality",
          "type": "string"
        }
      ],
      "name": "setUserProfile",
      "outputs": [],
      "stateMutability": "nonpayable",
      "type": "function"
    },
    {
      "inputs": [
        {
          "internalType": "string",
          "name": "title",
          "type": "string"
        },
        {
          "internalType": "string",
          "name": "category",
          "type": "string"
        },
        {
          "internalType": "string",
          "name": "ipfsHash",
          "type": "string"
        }
      ],
      "name": "submitArticle",
      "outputs": [],
      "stateMutability": "nonpayable",
      "type": "function"
    },
    {
      "inputs": [
        {
          "internalType": "address",
          "name": "",
          "type": "address"
        }
      ],
      "name": "userProfiles",
      "outputs": [
        {
          "internalType": "bool",
          "name": "exists",
          "type": "bool"
        },
        {
          "internalType": "uint256",
          "name": "age",
          "type": "uint256"
        },
        {
          "internalType": "string",
          "name": "location",
          "type": "string"
        },
        {
          "internalType": "string",
          "name": "nationality",
          "type": "string"
        }
      ],
      "stateMutability": "view",
      "type": "function"
    },
    {
      "inputs": [
        {
          "internalType": "uint256",
          "name": "articleId",
          "type": "uint256"
        },
        {
          "internalType": "bool",
          "name": "isCredible",
          "type": "bool"
        },
        {
          "internalType": "string",
          "name": "comment",
          "type": "string"
        }
      ],
      "name": "vote",
      "outputs": [],
      "stateMutability": "nonpayable",
      "type": "function"
    },
    {
      "inputs": [
        {
          "internalType": "uint256",
          "name": "",
          "type": "uint256"
        },
        {
          "internalType": "uint256",
          "name": "",
          "type": "uint256"
        }
      ],
      "name": "votesByArticle",
      "outputs": [
        {
          "internalType": "address",
          "name": "voter",
          "type": "address"
        },
        {
          "internalType": "bool",
          "name": "isCredible",
          "type": "bool"
        },
        {
          "internalType": "string",
          "name": "comment",
          "type": "string"
        },
        {
          "internalType": "uint256",
          "name": "timestamp",
          "type": "uint256"
        }
      ],
      "stateMutability": "view",
      "type": "function"
    }
  ],
  "bytecode": "0x6080604052348015600f57600080fd5b50336000806101000a81548173ffffffffffffffffffffffffffffffffffffffff021916908373ffffffffffffffffffffffffffffffffffffffff160217905550612ba58061005f6000396000f3fe608060405234801561001057600080fd5b50600436106101215760003560e01c8063959249f3116100ad578063d3c0715b11610071578063d3c0715b14610348578063d8257d6d14610364578063da7bd94a14610397578063ec160ccf146103b3578063edcfafe6146103cf57610121565b8063959249f3146102905780639b1f5220146102c0578063b2c2f2e8146102dc578063cf6787dc1461030c578063d387428b1461032a57610121565b806343859632116100f457806343859632146101da578063497e3cb11461020a5780634b2f6e6b1461022657806354b608ca146102425780638da5cb5b1461027257610121565b80630953ae1714610126578063219443b9146101445780632de6f5b514610177578063332d56d7146101a7575b600080fd5b61012e610406565b60405161013b9190611aa1565b60405180910390f35b61015e60048036038101906101599190611af2565b61040c565b60405161016e9493929190611c1e565b60405180910390f35b610191600480360381019061018c9190611c6a565b61050e565b60405161019e9190611aa1565b60405180910390f35b6101c160048036038101906101bc9190611cc3565b610532565b6040516101d19493929190611cf0565b60405180910390f35b6101f460048036038101906101ef9190611d43565b61067f565b6040516102019190611d83565b60405180910390f35b610224600480360381019061021f9190611d9e565b6106ae565b005b610240600480360381019061023b9190611c6a565b6107e4565b005b61025c60048036038101906102579190611cc3565b610943565b6040516102699190611aa1565b60405180910390f35b61027a61095b565b6040516102879190611dde565b60405180910390f35b6102aa60048036038101906102a59190611c6a565b61097f565b6040516102b79190611aa1565b60405180910390f35b6102da60048036038101906102d59190611e5e565b61099f565b005b6102f660048036038101906102f19190611c6a565b610e01565b6040516103039190611aa1565b60405180910390f35b610314610e21565b6040516103219190611aa1565b60405180910390f35b610332610e26565b60405161033f9190611aa1565b60405180910390f35b610362600480360381019061035d9190611f3e565b610e33565b005b61037e60048036038101906103799190611af2565b6111de565b60405161038e9493929190611fb2565b60405180910390f35b6103b160048036038101906103ac9190611ffe565b6112d3565b005b6103cd60048036038101906103c89190612093565b611474565b005b6103e960048036038101906103e49190611c6a565b61187b565b6040516103fd98979695949392919061210c565b60405180910390f35b60035481565b6007602052816000526040600020818154811061042857600080fd5b9060005260206000209060030201600091509150508060000160009054906101000a900473ffffffffffffffffffffffffffffffffffffffff16908060000160149054906101000a900460ff1690806001018054610485906121ce565b80601f01602080910402602001604051908101604052809291908181526020018280546104b1906121ce565b80156104fe5780601f106104d3576101008083540402835291602001916104fe565b820191906000526020600020905b8154815290600101906020018083116104e157829003601f168201915b5050505050908060020154905084565b6006818154811061051e57600080fd5b906000526020600020016000915090505481565b60026020528060005260406000206000915090508060000160009054906101000a900460ff169080600101549080600201805461056e906121ce565b80601f016020809104026020016040519081016040528092919081815260200182805461059a906121ce565b80156105e75780601f106105bc576101008083540402835291602001916105e7565b820191906000526020600020905b8154815290600101906020018083116105ca57829003601f168201915b5050505050908060030180546105fc906121ce565b80601f0160208091040260200160405190810160405280929190818152602001828054610628906121ce565b80156106755780601f1061064a57610100808354040283529160200191610675565b820191906000526020600020905b81548152906001019060200180831161065857829003601f168201915b5050505050905084565b60086020528160005260406000206020528060005260406000206000915091509054906101000a900460ff1681565b60008054906101000a900473ffffffffffffffffffffffffffffffffffffffff1673ffffffffffffffffffffffffffffffffffffffff163373ffffffffffffffffffffffffffffffffffffffff161461073c576040517f08c379a00000000000000000000000000000000000000000000000000000000081526004016107339061224b565b60405180910390fd5b80600160008473ffffffffffffffffffffffffffffffffffffffff1673ffffffffffffffffffffffffffffffffffffffff168152602001908152602001600020600082825461078b919061229a565b925050819055508173ffffffffffffffffffffffffffffffffffffffff167f99cb46f98f76745750d06175fcd666b8e711d0515e2bc2a84ce99c9027b9fad8826040516107d89190611aa1565b60405180910390a25050565b6000811180156107f657506003548111155b610835576040517f08c379a000000000000000000000000000000000000000000000000000000000815260040161082c9061231a565b60405180910390fd5b60006004600083815260200190815260200160002090508060010160009054906101000a900473ffffffffffffffffffffffffffffffffffffffff1673ffffffffffffffffffffffffffffffffffffffff163373ffffffffffffffffffffffffffffffffffffffff16146108de576040517f08c379a00000000000000000000000000000000000000000000000000000000081526004016108d590612386565b60405180910390fd5b60018160060160006101000a81548160ff0219169083151502179055503373ffffffffffffffffffffffffffffffffffffffff16827f84c39f9cfbbbbbf7e61b217100ffb79bc3cd50c5b8bd0c44a8efe206c29252db60405160405180910390a35050565b60016020528060005260406000206000915090505481565b60008054906101000a900473ffffffffffffffffffffffffffffffffffffffff1681565b600060056000838152602001908152602001600020805490509050919050565b600086869050116109e5576040517f08c379a00000000000000000000000000000000000000000000000000000000081526004016109dc906123f2565b60405180910390fd5b60008282905011610a2b576040517f08c379a0000000000000000000000000000000000000000000000000000000008152600401610a229061245e565b60405180910390fd5b60036000815480929190610a3e9061247e565b919050555060405180610100016040528060035481526020013373ffffffffffffffffffffffffffffffffffffffff16815260200187878080601f016020809104026020016040519081016040528093929190818152602001838380828437600081840152601f19601f82011690508083019250505050505050815260200185858080601f016020809104026020016040519081016040528093929190818152602001838380828437600081840152601f19601f82011690508083019250505050505050815260200183838080601f016020809104026020016040519081016040528093929190818152602001838380828437600081840152601f19601f82011690508083019250505050505050815260200142815260200160001515815260200160008152506004600060035481526020019081526020016000206000820151816000015560208201518160010160006101000a81548173ffffffffffffffffffffffffffffffffffffffff021916908373ffffffffffffffffffffffffffffffffffffffff1602179055506040820151816002019081610be091906126a1565b506060820151816003019081610bf691906126a1565b506080820151816004019081610c0c91906126a1565b5060a0820151816005015560c08201518160060160006101000a81548160ff02191690831515021790555060e0820151816007015590505060066003549080600181540180825580915050600190039060005260206000200160009091909190915055600560006003548152602001908152602001600020604051806080016040528042815260200184848080601f016020809104026020016040519081016040528093929190818152602001838380828437600081840152601f19601f8201169050808301925050505050505081526020013373ffffffffffffffffffffffffffffffffffffffff16815260200160008152509080600181540180825580915050600190039060005260206000209060040201600090919091909150600082015181600001556020820151816001019081610d4891906126a1565b5060408201518160020160006101000a81548173ffffffffffffffffffffffffffffffffffffffff021916908373ffffffffffffffffffffffffffffffffffffffff1602179055506060820151816003015550503373ffffffffffffffffffffffffffffffffffffffff166003547f3c542f48c30b5389e87f0a01724df6f0eb84f28ee3500292034b51ae371c431988888888888842604051610df197969594939291906127af565b60405180910390a3505050505050565b600060076000838152602001908152602001600020805490509050919050565b600a81565b6000600680549050905090565b600084118015610e4557506003548411155b610e84576040517f08c379a0000000000000000000000000000000000000000000000000000000008152600401610e7b9061231a565b60405180910390fd5b6008600085815260200190815260200160002060003373ffffffffffffffffffffffffffffffffffffffff1673ffffffffffffffffffffffffffffffffffffffff16815260200190815260200160002060009054906101000a900460ff1615610f22576040517f08c379a0000000000000000000000000000000000000000000000000000000008152600401610f199061285b565b60405180910390fd5b60006004600086815260200190815260200160002090508060060160009054906101000a900460ff1615610f8b576040517f08c379a0000000000000000000000000000000000000000000000000000000008152600401610f82906128c7565b60405180910390fd5b60016008600087815260200190815260200160002060003373ffffffffffffffffffffffffffffffffffffffff1673ffffffffffffffffffffffffffffffffffffffff16815260200190815260200160002060006101000a81548160ff0219169083151502179055506007600086815260200190815260200160002060405180608001604052803373ffffffffffffffffffffffffffffffffffffffff168152602001861515815260200185858080601f016020809104026020016040519081016040528093929190818152602001838380828437600081840152601f19601f82011690508083019250505050505050815260200142815250908060018154018082558091505060019003906000526020600020906003020160009091909190915060008201518160000160006101000a81548173ffffffffffffffffffffffffffffffffffffffff021916908373ffffffffffffffffffffffffffffffffffffffff16021790555060208201518160000160146101000a81548160ff021916908315150217905550604082015181600101908161112991906126a1565b5060608201518160020155505083611161577fffffffffffffffffffffffffffffffffffffffffffffffffffffffffffffffff611164565b60015b81600701600082825461117791906128e7565b925050819055503373ffffffffffffffffffffffffffffffffffffffff16857f51d98f8a75cc7da81eca7db90c10c472c129206687dba93b60cd163825c1d3bb86868686600701546040516111cf949392919061292b565b60405180910390a35050505050565b600560205281600052604060002081815481106111fa57600080fd5b906000526020600020906004020160009150915050806000015490806001018054611224906121ce565b80601f0160208091040260200160405190810160405280929190818152602001828054611250906121ce565b801561129d5780601f106112725761010080835404028352916020019161129d565b820191906000526020600020905b81548152906001019060200180831161128057829003601f168201915b5050505050908060020160009054906101000a900473ffffffffffffffffffffffffffffffffffffffff16908060030154905084565b604051806080016040528060011515815260200186815260200185858080601f016020809104026020016040519081016040528093929190818152602001838380828437600081840152601f19601f82011690508083019250505050505050815260200183838080601f016020809104026020016040519081016040528093929190818152602001838380828437600081840152601f19601f82011690508083019250505050505050815250600260003373ffffffffffffffffffffffffffffffffffffffff1673ffffffffffffffffffffffffffffffffffffffff16815260200190815260200160002060008201518160000160006101000a81548160ff0219169083151502179055506020820151816001015560408201518160020190816113fd91906126a1565b50606082015181600301908161141391906126a1565b509050503373ffffffffffffffffffffffffffffffffffffffff167f28e19300a07afa0069c4dd9d2c3c76ca2b6759750e7a3b43bb4cc35cfa2efe38868686868660405161146595949392919061296b565b60405180910390a25050505050565b60008311801561148657506003548311155b6114c5576040517f08c379a00000000000000000000000000000000000000000000000000000000081526004016114bc9061231a565b60405180910390fd5b60006004600085815260200190815260200160002090508060060160009054906101000a900460ff161561152e576040517f08c379a0000000000000000000000000000000000000000000000000000000008152600401611525906128c7565b60405180910390fd5b8060010160009054906101000a900473ffffffffffffffffffffffffffffffffffffffff1673ffffffffffffffffffffffffffffffffffffffff163373ffffffffffffffffffffffffffffffffffffffff16146115c0576040517f08c379a00000000000000000000000000000000000000000000000000000000081526004016115b790612386565b60405180910390fd5b60008383905011611606576040517f08c379a00000000000000000000000000000000000000000000000000000000081526004016115fd9061245e565b60405180910390fd5b600a600160003373ffffffffffffffffffffffffffffffffffffffff1673ffffffffffffffffffffffffffffffffffffffff168152602001908152602001600020541015611689576040517f08c379a000000000000000000000000000000000000000000000000000000000815260040161168090612a00565b60405180910390fd5b600a600160003373ffffffffffffffffffffffffffffffffffffffff1673ffffffffffffffffffffffffffffffffffffffff16815260200190815260200160002060008282546116d99190612a20565b9250508190555082828260040191826116f3929190612a5f565b5060056000858152602001908152602001600020604051806080016040528042815260200185858080601f016020809104026020016040519081016040528093929190818152602001838380828437600081840152601f19601f8201169050808301925050505050505081526020013373ffffffffffffffffffffffffffffffffffffffff168152602001600a81525090806001815401808255809150506001900390600052602060002090600402016000909190919091506000820151816000015560208201518160010190816117cb91906126a1565b5060408201518160020160006101000a81548173ffffffffffffffffffffffffffffffffffffffff021916908373ffffffffffffffffffffffffffffffffffffffff1602179055506060820151816003015550503373ffffffffffffffffffffffffffffffffffffffff16847f20236bbe9decb5937408d68f95bff1359227a913ea514e92a50a2920ec855f578585600a4260405161186d9493929190612b2f565b60405180910390a350505050565b60046020528060005260406000206000915090508060000154908060010160009054906101000a900473ffffffffffffffffffffffffffffffffffffffff16908060020180546118ca906121ce565b80601f01602080910402602001604051908101604052809291908181526020018280546118f6906121ce565b80156119435780601f1061191857610100808354040283529160200191611943565b820191906000526020600020905b81548152906001019060200180831161192657829003601f168201915b505050505090806003018054611958906121ce565b80601f0160208091040260200160405190810160405280929190818152602001828054611984906121ce565b80156119d15780601f106119a6576101008083540402835291602001916119d1565b820191906000526020600020905b8154815290600101906020018083116119b457829003601f168201915b5050505050908060040180546119e6906121ce565b80601f0160208091040260200160405190810160405280929190818152602001828054611a12906121ce565b8015611a5f5780601f10611a3457610100808354040283529160200191611a5f565b820191906000526020600020905b815481529060010190602001808311611a4257829003601f168201915b5050505050908060050154908060060160009054906101000a900460ff16908060070154905088565b6000819050919050565b611a9b81611a88565b82525050565b6000602082019050611ab66000830184611a92565b92915050565b600080fd5b600080fd5b611acf81611a88565b8114611ada57600080fd5b50565b600081359050611aec81611ac6565b92915050565b60008060408385031215611b0957611b08611abc565b5b6000611b1785828601611add565b9250506020611b2885828601611add565b9150509250929050565b600073ffffffffffffffffffffffffffffffffffffffff82169050919050565b6000611b5d82611b32565b9050919050565b611b6d81611b52565b82525050565b60008115159050919050565b611b8881611b73565b82525050565b600081519050919050565b600082825260208201905092915050565b60005b83811015611bc8578082015181840152602081019050611bad565b60008484015250505050565b6000601f19601f8301169050919050565b6000611bf082611b8e565b611bfa8185611b99565b9350611c0a818560208601611baa565b611c1381611bd4565b840191505092915050565b6000608082019050611c336000830187611b64565b611c406020830186611b7f565b8181036040830152611c528185611be5565b9050611c616060830184611a92565b95945050505050565b600060208284031215611c8057611c7f611abc565b5b6000611c8e84828501611add565b91505092915050565b611ca081611b52565b8114611cab57600080fd5b50565b600081359050611cbd81611c97565b92915050565b600060208284031215611cd957611cd8611abc565b5b6000611ce784828501611cae565b91505092915050565b6000608082019050611d056000830187611b7f565b611d126020830186611a92565b8181036040830152611d248185611be5565b90508181036060830152611d388184611be5565b905095945050505050565b60008060408385031215611d5a57611d59611abc565b5b6000611d6885828601611add565b9250506020611d7985828601611cae565b9150509250929050565b6000602082019050611d986000830184611b7f565b92915050565b60008060408385031215611db557611db4611abc565b5b6000611dc385828601611cae565b9250506020611dd485828601611add565b9150509250929050565b6000602082019050611df36000830184611b64565b92915050565b600080fd5b600080fd5b600080fd5b60008083601f840112611e1e57611e1d611df9565b5b8235905067ffffffffffffffff811115611e3b57611e3a611dfe565b5b602083019150836001820283011115611e5757611e56611e03565b5b9250929050565b60008060008060008060608789031215611e7b57611e7a611abc565b5b600087013567ffffffffffffffff811115611e9957611e98611ac1565b5b611ea589828a01611e08565b9650965050602087013567ffffffffffffffff811115611ec857611ec7611ac1565b5b611ed489828a01611e08565b9450945050604087013567ffffffffffffffff811115611ef757611ef6611ac1565b5b611f0389828a01611e08565b92509250509295509295509295565b611f1b81611b73565b8114611f2657600080fd5b50565b600081359050611f3881611f12565b92915050565b60008060008060608587031215611f5857611f57611abc565b5b6000611f6687828801611add565b9450506020611f7787828801611f29565b935050604085013567ffffffffffffffff811115611f9857611f97611ac1565b5b611fa487828801611e08565b925092505092959194509250565b6000608082019050611fc76000830187611a92565b8181036020830152611fd98186611be5565b9050611fe86040830185611b64565b611ff56060830184611a92565b95945050505050565b60008060008060006060868803121561201a57612019611abc565b5b600061202888828901611add565b955050602086013567ffffffffffffffff81111561204957612048611ac1565b5b61205588828901611e08565b9450945050604086013567ffffffffffffffff81111561207857612077611ac1565b5b61208488828901611e08565b92509250509295509295909350565b6000806000604084860312156120ac576120ab611abc565b5b60006120ba86828701611add565b935050602084013567ffffffffffffffff8111156120db576120da611ac1565b5b6120e786828701611e08565b92509250509250925092565b6000819050919050565b612106816120f3565b82525050565b600061010082019050612122600083018b611a92565b61212f602083018a611b64565b81810360408301526121418189611be5565b905081810360608301526121558188611be5565b905081810360808301526121698187611be5565b905061217860a0830186611a92565b61218560c0830185611b7f565b61219260e08301846120fd565b9998505050505050505050565b7f4e487b7100000000000000000000000000000000000000000000000000000000600052602260045260246000fd5b600060028204905060018216806121e657607f821691505b6020821081036121f9576121f861219f565b5b50919050565b7f4f6e6c79206f776e657200000000000000000000000000000000000000000000600082015250565b6000612235600a83611b99565b9150612240826121ff565b602082019050919050565b6000602082019050818103600083015261226481612228565b9050919050565b7f4e487b7100000000000000000000000000000000000000000000000000000000600052601160045260246000fd5b60006122a582611a88565b91506122b083611a88565b92508282019050808211156122c8576122c761226b565b5b92915050565b7f496e76616c696420696400000000000000000000000000000000000000000000600082015250565b6000612304600a83611b99565b915061230f826122ce565b602082019050919050565b60006020820190508181036000830152612333816122f7565b9050919050565b7f4f6e6c7920617574686f72000000000000000000000000000000000000000000600082015250565b6000612370600b83611b99565b915061237b8261233a565b602082019050919050565b6000602082019050818103600083015261239f81612363565b9050919050565b7f456d707479207469746c65000000000000000000000000000000000000000000600082015250565b60006123dc600b83611b99565b91506123e7826123a6565b602082019050919050565b6000602082019050818103600083015261240b816123cf565b9050919050565b7f456d707479204950465300000000000000000000000000000000000000000000600082015250565b6000612448600a83611b99565b915061245382612412565b602082019050919050565b600060208201905081810360008301526124778161243b565b9050919050565b600061248982611a88565b91507fffffffffffffffffffffffffffffffffffffffffffffffffffffffffffffffff82036124bb576124ba61226b565b5b600182019050919050565b7f4e487b7100000000000000000000000000000000000000000000000000000000600052604160045260246000fd5b60008190508160005260206000209050919050565b60006020601f8301049050919050565b600082821b905092915050565b6000600883026125577fffffffffffffffffffffffffffffffffffffffffffffffffffffffffffffffff8261251a565b612561868361251a565b95508019841693508086168417925050509392505050565b6000819050919050565b600061259e61259961259484611a88565b612579565b611a88565b9050919050565b6000819050919050565b6125b883612583565b6125cc6125c4826125a5565b848454612527565b825550505050565b600090565b6125e16125d4565b6125ec8184846125af565b505050565b5b81811015612610576126056000826125d9565b6001810190506125f2565b5050565b601f82111561265557612626816124f5565b61262f8461250a565b8101602085101561263e578190505b61265261264a8561250a565b8301826125f1565b50505b505050565b600082821c905092915050565b60006126786000198460080261265a565b1980831691505092915050565b60006126918383612667565b9150826002028217905092915050565b6126aa82611b8e565b67ffffffffffffffff8111156126c3576126c26124c6565b5b6126cd82546121ce565b6126d8828285612614565b600060209050601f83116001811461270b57600084156126f9578287015190505b6127038582612685565b86555061276b565b601f198416612719866124f5565b60005b828110156127415784890151825560018201915060208501945060208101905061271c565b8683101561275e578489015161275a601f891682612667565b8355505b6001600288020188555050505b505050505050565b82818337600083830152505050565b600061278e8385611b99565b935061279b838584612773565b6127a483611bd4565b840190509392505050565b600060808201905081810360008301526127ca81898b612782565b905081810360208301526127df818789612782565b905081810360408301526127f4818587612782565b90506128036060830184611a92565b98975050505050505050565b7f416c726561647920766f74656400000000000000000000000000000000000000600082015250565b6000612845600d83611b99565b91506128508261280f565b602082019050919050565b6000602082019050818103600083015261287481612838565b9050919050565b7f5265747261637465640000000000000000000000000000000000000000000000600082015250565b60006128b1600983611b99565b91506128bc8261287b565b602082019050919050565b600060208201905081810360008301526128e0816128a4565b9050919050565b60006128f2826120f3565b91506128fd836120f3565b9250828201905082811215600083121683821260008412151617156129255761292461226b565b5b92915050565b60006060820190506129406000830187611b7f565b8181036020830152612953818587612782565b905061296260408301846120fd565b95945050505050565b60006060820190506129806000830188611a92565b8181036020830152612993818688612782565b905081810360408301526129a8818486612782565b90509695505050505050565b7f496e73756666696369656e742048415348000000000000000000000000000000600082015250565b60006129ea601183611b99565b91506129f5826129b4565b602082019050919050565b60006020820190508181036000830152612a19816129dd565b9050919050565b6000612a2b82611a88565b9150612a3683611a88565b9250828203905081811115612a4e57612a4d61226b565b5b92915050565b600082905092915050565b612a698383612a54565b67ffffffffffffffff811115612a8257612a816124c6565b5b612a8c82546121ce565b612a97828285612614565b6000601f831160018114612ac65760008415612ab4578287013590505b612abe8582612685565b865550612b26565b601f198416612ad4866124f5565b60005b82811015612afc57848901358255600182019150602085019450602081019050612ad7565b86831015612b195784890135612b15601f891682612667565b8355505b6001600288020188555050505b50505050505050565b60006060820190508181036000830152612b4a818688612782565b9050612b596020830185611a92565b612b666040830184611a92565b9594505050505056fea2646970667358221220bfd845aa4d7b48b8ef399ea02f83dca8f2f6e0352c9b76bfc87958148e85f62564736f6c634300081c0033",
  "linkReferences": {},
  "deployedLinkReferences": {}
}